{
  "_format": "hh-sol-artifact-1",
  "contractName": "TokenSale",
  "sourceName": "contracts/TokenSaleContract.sol",
  "abi": [
    {
      "inputs": [
        {
          "internalType": "contract ZexoToken",
          "name": "_tokenContract",
          "type": "address"
        },
        {
          "internalType": "uint256",
          "name": "_tokenPrice",
          "type": "uint256"
        }
      ],
      "stateMutability": "nonpayable",
      "type": "constructor"
    },
    {
      "anonymous": false,
      "inputs": [
        {
          "indexed": false,
          "internalType": "address",
          "name": "_buyer",
          "type": "address"
        },
        {
          "indexed": false,
          "internalType": "uint256",
          "name": "_amount",
          "type": "uint256"
        }
      ],
      "name": "Sell",
      "type": "event"
    },
    {
      "inputs": [
        {
          "internalType": "uint256",
          "name": "_numberOfTokens",
          "type": "uint256"
        }
      ],
      "name": "buyToken",
      "outputs": [],
      "stateMutability": "payable",
      "type": "function"
    },
    {
      "inputs": [],
      "name": "endSale",
      "outputs": [],
      "stateMutability": "nonpayable",
      "type": "function"
    },
    {
      "inputs": [],
      "name": "tokenContract",
      "outputs": [
        {
          "internalType": "contract ZexoToken",
          "name": "",
          "type": "address"
        }
      ],
      "stateMutability": "view",
      "type": "function"
    },
    {
      "inputs": [],
      "name": "tokenPrice",
      "outputs": [
        {
          "internalType": "uint256",
          "name": "",
          "type": "uint256"
        }
      ],
      "stateMutability": "view",
      "type": "function"
    },
    {
      "inputs": [],
      "name": "tokensSold",
      "outputs": [
        {
          "internalType": "uint256",
          "name": "",
          "type": "uint256"
        }
      ],
      "stateMutability": "view",
      "type": "function"
    }
  ],
  "bytecode": "0x608060405234801561001057600080fd5b506040516105b23803806105b283398101604081905261002f91610066565b60008054336001600160a01b031991821617909155600180549091166001600160a01b0393909316929092179091556002556100a0565b6000806040838503121561007957600080fd5b82516001600160a01b038116811461009057600080fd5b6020939093015192949293505050565b610503806100af6000396000f3fe60806040526004361061004a5760003560e01c80632d296bf11461004f578063380d831b14610064578063518ab2a81461007957806355a373d6146100a25780637ff9b596146100da575b600080fd5b61006261005d366004610403565b6100f0565b005b34801561007057600080fd5b5061006261026d565b34801561008557600080fd5b5061008f60035481565b6040519081526020015b60405180910390f35b3480156100ae57600080fd5b506001546100c2906001600160a01b031681565b6040516001600160a01b039091168152602001610099565b3480156100e657600080fd5b5061008f60025481565b6100fc816002546103d0565b341461010757600080fd5b6001546040516370a0823160e01b815230600482015282916001600160a01b0316906370a082319060240160206040518083038186803b15801561014a57600080fd5b505afa15801561015e573d6000803e3d6000fd5b505050506040513d601f19601f82011682018060405250810190610182919061041c565b101561018d57600080fd5b60015460405163a9059cbb60e01b8152336004820152602481018390526001600160a01b039091169063a9059cbb90604401602060405180830381600087803b1580156101d957600080fd5b505af11580156101ed573d6000803e3d6000fd5b505050506040513d601f19601f820116820180604052508101906102119190610435565b61021a57600080fd5b806003600082825461022c9190610474565b909155505060408051338152602081018390527f5e5e995ce3133561afceaa51a9a154d5db228cd7525d34df5185582c18d3df09910160405180910390a150565b6000546001600160a01b0316331461028457600080fd5b6001546000546040516370a0823160e01b81523060048201526001600160a01b039283169263a9059cbb92169083906370a082319060240160206040518083038186803b1580156102d457600080fd5b505afa1580156102e8573d6000803e3d6000fd5b505050506040513d601f19601f8201168201806040525081019061030c919061041c565b6040516001600160e01b031960e085901b1681526001600160a01b0390921660048301526024820152604401602060405180830381600087803b15801561035257600080fd5b505af1158015610366573d6000803e3d6000fd5b505050506040513d601f19601f8201168201806040525081019061038a9190610435565b61039357600080fd5b600080546040516001600160a01b03909116914780156108fc02929091818181858888f193505050501580156103cd573d6000803e3d6000fd5b50565b60008115806103f4575082826103e6818361048c565b92506103f290836104ab565b145b6103fd57600080fd5b92915050565b60006020828403121561041557600080fd5b5035919050565b60006020828403121561042e57600080fd5b5051919050565b60006020828403121561044757600080fd5b8151801515811461045757600080fd5b9392505050565b634e487b7160e01b600052601160045260246000fd5b600082198211156104875761048761045e565b500190565b60008160001904831182151516156104a6576104a661045e565b500290565b6000826104c857634e487b7160e01b600052601260045260246000fd5b50049056fea2646970667358221220f7c95f8d30bcae64d8462984ea5b27963dc041627e725c592d823f67e5dcc00864736f6c63430008090033",
  "linkReferences": {},
  "deployedLinkReferences": {}
}